{
  "contractName": "BookRental",
  "abi": [
    {
      "inputs": [],
      "stateMutability": "nonpayable",
      "type": "constructor"
    },
    {
      "anonymous": false,
      "inputs": [
        {
          "indexed": false,
          "internalType": "uint256",
          "name": "deposit",
          "type": "uint256"
        },
        {
          "indexed": false,
          "internalType": "uint256",
          "name": "totalRent",
          "type": "uint256"
        },
        {
          "indexed": false,
          "internalType": "uint256",
          "name": "refundAmount",
          "type": "uint256"
        }
      ],
      "name": "DebugRefund",
      "type": "event"
    },
    {
      "anonymous": false,
      "inputs": [
        {
          "indexed": true,
          "internalType": "uint256",
          "name": "bookId",
          "type": "uint256"
        },
        {
          "indexed": false,
          "internalType": "string",
          "name": "title",
          "type": "string"
        },
        {
          "indexed": false,
          "internalType": "uint256",
          "name": "dailyPrice",
          "type": "uint256"
        },
        {
          "indexed": false,
          "internalType": "uint256",
          "name": "deposit",
          "type": "uint256"
        }
      ],
      "name": "ItemListed",
      "type": "event"
    },
    {
      "anonymous": false,
      "inputs": [
        {
          "indexed": true,
          "internalType": "uint256",
          "name": "bookId",
          "type": "uint256"
        },
        {
          "indexed": true,
          "internalType": "address",
          "name": "renter",
          "type": "address"
        }
      ],
      "name": "ItemRented",
      "type": "event"
    },
    {
      "anonymous": false,
      "inputs": [
        {
          "indexed": true,
          "internalType": "uint256",
          "name": "bookId",
          "type": "uint256"
        },
        {
          "indexed": true,
          "internalType": "address",
          "name": "renter",
          "type": "address"
        },
        {
          "indexed": false,
          "internalType": "uint256",
          "name": "refundAmount",
          "type": "uint256"
        }
      ],
      "name": "ItemReturned",
      "type": "event"
    },
    {
      "anonymous": false,
      "inputs": [
        {
          "indexed": true,
          "internalType": "address",
          "name": "previousOwner",
          "type": "address"
        },
        {
          "indexed": true,
          "internalType": "address",
          "name": "newOwner",
          "type": "address"
        }
      ],
      "name": "OwnershipTransferred",
      "type": "event"
    },
    {
      "anonymous": false,
      "inputs": [
        {
          "indexed": true,
          "internalType": "address",
          "name": "to",
          "type": "address"
        },
        {
          "indexed": false,
          "internalType": "uint256",
          "name": "amount",
          "type": "uint256"
        }
      ],
      "name": "PaymentSent",
      "type": "event"
    },
    {
      "anonymous": false,
      "inputs": [
        {
          "indexed": true,
          "internalType": "address",
          "name": "to",
          "type": "address"
        },
        {
          "indexed": false,
          "internalType": "uint256",
          "name": "amount",
          "type": "uint256"
        }
      ],
      "name": "RefundSent",
      "type": "event"
    },
    {
      "inputs": [],
      "name": "LATE_FEE_MULTIPLIER",
      "outputs": [
        {
          "internalType": "uint256",
          "name": "",
          "type": "uint256"
        }
      ],
      "stateMutability": "view",
      "type": "function",
      "constant": true
    },
    {
      "inputs": [],
      "name": "SECONDS_PER_MINUTE",
      "outputs": [
        {
          "internalType": "uint256",
          "name": "",
          "type": "uint256"
        }
      ],
      "stateMutability": "view",
      "type": "function",
      "constant": true
    },
    {
      "inputs": [],
      "name": "bookCount",
      "outputs": [
        {
          "internalType": "uint256",
          "name": "",
          "type": "uint256"
        }
      ],
      "stateMutability": "view",
      "type": "function",
      "constant": true
    },
    {
      "inputs": [
        {
          "internalType": "uint256",
          "name": "",
          "type": "uint256"
        }
      ],
      "name": "books",
      "outputs": [
        {
          "internalType": "string",
          "name": "title",
          "type": "string"
        },
        {
          "internalType": "uint256",
          "name": "dailyPrice",
          "type": "uint256"
        },
        {
          "internalType": "uint256",
          "name": "deposit",
          "type": "uint256"
        },
        {
          "internalType": "address",
          "name": "owner",
          "type": "address"
        },
        {
          "internalType": "address",
          "name": "renter",
          "type": "address"
        },
        {
          "internalType": "uint256",
          "name": "rentalStartTime",
          "type": "uint256"
        },
        {
          "internalType": "bool",
          "name": "isAvailable",
          "type": "bool"
        }
      ],
      "stateMutability": "view",
      "type": "function",
      "constant": true
    },
    {
      "inputs": [],
      "name": "owner",
      "outputs": [
        {
          "internalType": "address",
          "name": "",
          "type": "address"
        }
      ],
      "stateMutability": "view",
      "type": "function",
      "constant": true
    },
    {
      "inputs": [],
      "name": "renounceOwnership",
      "outputs": [],
      "stateMutability": "nonpayable",
      "type": "function"
    },
    {
      "inputs": [
        {
          "internalType": "address",
          "name": "newOwner",
          "type": "address"
        }
      ],
      "name": "transferOwnership",
      "outputs": [],
      "stateMutability": "nonpayable",
      "type": "function"
    },
    {
      "inputs": [
        {
          "internalType": "string",
          "name": "_title",
          "type": "string"
        },
        {
          "internalType": "uint256",
          "name": "_dailyPrice",
          "type": "uint256"
        },
        {
          "internalType": "uint256",
          "name": "_deposit",
          "type": "uint256"
        }
      ],
      "name": "listItem",
      "outputs": [],
      "stateMutability": "nonpayable",
      "type": "function"
    },
    {
      "inputs": [
        {
          "internalType": "uint256",
          "name": "_bookId",
          "type": "uint256"
        }
      ],
      "name": "rentItem",
      "outputs": [],
      "stateMutability": "payable",
      "type": "function",
      "payable": true
    },
    {
      "inputs": [
        {
          "internalType": "uint256",
          "name": "_bookId",
          "type": "uint256"
        }
      ],
      "name": "returnItem",
      "outputs": [],
      "stateMutability": "payable",
      "type": "function",
      "payable": true
    },
    {
      "inputs": [
        {
          "internalType": "uint256",
          "name": "_bookId",
          "type": "uint256"
        }
      ],
      "name": "getBook",
      "outputs": [
        {
          "internalType": "string",
          "name": "title",
          "type": "string"
        },
        {
          "internalType": "uint256",
          "name": "dailyPrice",
          "type": "uint256"
        },
        {
          "internalType": "uint256",
          "name": "deposit",
          "type": "uint256"
        },
        {
          "internalType": "address",
          "name": "owner",
          "type": "address"
        },
        {
          "internalType": "address",
          "name": "renter",
          "type": "address"
        },
        {
          "internalType": "uint256",
          "name": "rentalStartTime",
          "type": "uint256"
        },
        {
          "internalType": "bool",
          "name": "isAvailable",
          "type": "bool"
        }
      ],
      "stateMutability": "view",
      "type": "function",
      "constant": true
    },
    {
      "inputs": [],
      "name": "getBookCount",
      "outputs": [
        {
          "internalType": "uint256",
          "name": "",
          "type": "uint256"
        }
      ],
      "stateMutability": "view",
      "type": "function",
      "constant": true
    }
  ],
  "bytecode": "0x608060405234801561001057600080fd5b50600160005561001f33610024565b610076565b600180546001600160a01b038381166001600160a01b0319831681179093556040519116919082907f8be0079c531659141344cd1fd0a4f28419497f9722a3daafe3b4186f6b6457e090600090a35050565b6117e3806100856000396000f3fe6080604052600436106100a75760003560e01c8063d73e0c8911610064578063d73e0c8914610173578063d78d385214610188578063e0ff5b8b1461019b578063e9556430146101bb578063f1766279146101d0578063f2fde38b146101f057600080fd5b8063223ed1dd146100ac57806368744046146100c1578063715018a6146100fd57806385ae3eaf146101125780638da5cb5b14610135578063b905ad781461015d575b600080fd5b6100bf6100ba3660046111fb565b610210565b005b3480156100cd57600080fd5b506100e16100dc3660046111fb565b6108dd565b6040516100f49796959493929190611264565b60405180910390f35b34801561010957600080fd5b506100bf6109b0565b34801561011e57600080fd5b50610127600281565b6040519081526020016100f4565b34801561014157600080fd5b506001546040516001600160a01b0390911681526020016100f4565b34801561016957600080fd5b5061012760035481565b34801561017f57600080fd5b50600354610127565b6100bf6101963660046111fb565b6109c4565b3480156101a757600080fd5b506100e16101b63660046111fb565b610c18565b3480156101c757600080fd5b50610127603c81565b3480156101dc57600080fd5b506100bf6101eb3660046112cc565b610d33565b3480156101fc57600080fd5b506100bf61020b366004611390565b610f54565b610218610fca565b60035481106102425760405162461bcd60e51b8152600401610239906113c0565b60405180910390fd5b6000818152600260205260409020600681015460ff161561029a5760405162461bcd60e51b8152602060048201526012602482015271109bdbdac81a5cc81b9bdd081c995b9d195960721b6044820152606401610239565b60048101546001600160a01b031633146102f65760405162461bcd60e51b815260206004820152601f60248201527f4f6e6c792072656e7465722063616e2072657475726e2074686520626f6f6b006044820152606401610239565b6000603c82600501544261030a91906113ff565b6103149190611418565b905080600003610322575060015b6000818360010154610334919061143a565b6004840180546001600160a01b0319811690915560006005860181905560068601805460ff1916600117905560028601549293506001600160a01b03909116918190819085111561060157600287015461038e90866113ff565b90508034101561039d82611023565b6103a687611023565b6103af89611023565b6103bc8b60010154611023565b6040516020016103cf9493929190611451565b604051602081830303815290604052906103fc5760405162461bcd60e51b8152600401610239919061154f565b50600092508087600201546104119190611562565b91508034111561051257600061042782346113ff565b90506000856001600160a01b03168260405160006040518083038185875af1925050503d8060008114610476576040519150601f19603f3d011682016040523d82523d6000602084013e61047b565b606091505b50509050806104cc5760405162461bcd60e51b815260206004820152601c60248201527f457863657373207061796d656e7420726566756e64206661696c6564000000006044820152606401610239565b856001600160a01b03167fe309aa15fd2f6bd8a58603632508694071e7d35e967bdbb827926e429b7ef34d8360405161050791815260200190565b60405180910390a250505b60038701546040516000916001600160a01b03169084908381818185875af1925050503d8060008114610561576040519150601f19603f3d011682016040523d82523d6000602084013e610566565b606091505b50509050806105b75760405162461bcd60e51b815260206004820152601d60248201527f4f776e6572207061796d656e74207472616e73666572206661696c65640000006044820152606401610239565b60038801546040518481526001600160a01b03909116907f47db2abce6d5fbcd80ffd9b4ba74dcde804a746ef732bc7f8a70fabfc912c5909060200160405180910390a250610885565b341561065f5760405162461bcd60e51b815260206004820152602760248201527f4e6f206164646974696f6e616c207061796d656e74206e656564656420666f72604482015266103932ba3ab93760c91b6064820152608401610239565b84876002015461066f91906113ff565b6002880154604080519182526020820188905281018290529093508592507fed5aec51197fcc0adc87ad045013ec657537a856c6a45f75a0ef9559890d6ff79060600160405180910390a16000846001600160a01b03168460405160006040518083038185875af1925050503d8060008114610707576040519150601f19603f3d011682016040523d82523d6000602084013e61070c565b606091505b50509050806107565760405162461bcd60e51b81526020600482015260166024820152751499599d5b99081d1c985b9cd9995c8819985a5b195960521b6044820152606401610239565b846001600160a01b03167fe309aa15fd2f6bd8a58603632508694071e7d35e967bdbb827926e429b7ef34d8560405161079191815260200190565b60405180910390a260038801546040516000916001600160a01b03169085908381818185875af1925050503d80600081146107e8576040519150601f19603f3d011682016040523d82523d6000602084013e6107ed565b606091505b505090508061083e5760405162461bcd60e51b815260206004820152601d60248201527f4f776e6572207061796d656e74207472616e73666572206661696c65640000006044820152606401610239565b60038901546040518581526001600160a01b03909116907f47db2abce6d5fbcd80ffd9b4ba74dcde804a746ef732bc7f8a70fabfc912c5909060200160405180910390a250505b836001600160a01b0316887f970f102ef13f62cce0e85e0de6072b01e730491d1832d0e578e45886da3a1ef3856040516108c191815260200190565b60405180910390a3505050505050506108da6001600055565b50565b6002602052600090815260409020805481906108f890611575565b80601f016020809104026020016040519081016040528092919081815260200182805461092490611575565b80156109715780601f1061094657610100808354040283529160200191610971565b820191906000526020600020905b81548152906001019060200180831161095457829003601f168201915b50505060018401546002850154600386015460048701546005880154600690980154969793969295506001600160a01b03918216945016919060ff1687565b6109b861114f565b6109c260006111a9565b565b6109cc610fca565b60035481106109ed5760405162461bcd60e51b8152600401610239906113c0565b6000818152600260205260409020600681015460ff16610a475760405162461bcd60e51b8152602060048201526015602482015274426f6f6b206973206e6f7420617661696c61626c6560581b6044820152606401610239565b60038101546001600160a01b03163303610aa35760405162461bcd60e51b815260206004820152601960248201527f43616e6e6f742072656e7420796f7572206f776e20626f6f6b000000000000006044820152606401610239565b600081600201548260010154610ab99190611562565b905080341015610ac882611023565b610ad134611023565b604051602001610ae29291906115af565b60405160208183030381529060405290610b0f5760405162461bcd60e51b8152600401610239919061154f565b506004820180546001600160a01b0319163317905542600583015560068201805460ff1916905534811015610bdf57600033610b4b83346113ff565b604051600081818185875af1925050503d8060008114610b87576040519150601f19603f3d011682016040523d82523d6000602084013e610b8c565b606091505b5050905080610bdd5760405162461bcd60e51b815260206004820152601c60248201527f457863657373207061796d656e7420726566756e64206661696c6564000000006044820152606401610239565b505b604051339084907f60a8ad5021d41afc35cad1dcad49a375a37f3d9c05c95bdf82d653ae99869a0c90600090a350506108da6001600055565b60606000806000806000806003548810610c445760405162461bcd60e51b8152600401610239906113c0565b600088815260026020819052604090912060018101549181015460038201546004830154600584015460068501548554959687969095946001600160a01b039081169416929160ff16908790610c9990611575565b80601f0160208091040260200160405190810160405280929190818152602001828054610cc590611575565b8015610d125780601f10610ce757610100808354040283529160200191610d12565b820191906000526020600020905b815481529060010190602001808311610cf557829003601f168201915b50505050509650975097509750975097509750975050919395979092949650565b6000835111610d7c5760405162461bcd60e51b81526020600482015260156024820152745469746c652063616e6e6f7420626520656d70747960581b6044820152606401610239565b60008211610dcc5760405162461bcd60e51b815260206004820152601c60248201527f5072696365206d7573742062652067726561746572207468616e2030000000006044820152606401610239565b81811015610e335760405162461bcd60e51b815260206004820152602e60248201527f4465706f736974206d7573742062652067726561746572207468616e206f722060448201526d657175616c20746f20707269636560901b6064820152608401610239565b6003546040805160e081018252858152602080820186905281830185905233606083015260006080830181905260a08301819052600160c084015284815260029091529190912081518190610e889082611680565b5060208201516001820155604082015160028201556060820151600380830180546001600160a01b039384166001600160a01b03199182161790915560808501516004850180549190941691161790915560a0830151600583015560c0909201516006909101805491151560ff199092169190911790558054906000610f0d83611740565b9190505550807fa5adc50784bf6e37e1400409531ab81ecbbeebf44d0d317d5da8e7a0d2eb3e90858585604051610f4693929190611759565b60405180910390a250505050565b610f5c61114f565b6001600160a01b038116610fc15760405162461bcd60e51b815260206004820152602660248201527f4f776e61626c653a206e6577206f776e657220697320746865207a65726f206160448201526564647265737360d01b6064820152608401610239565b6108da816111a9565b60026000540361101c5760405162461bcd60e51b815260206004820152601f60248201527f5265656e7472616e637947756172643a207265656e7472616e742063616c6c006044820152606401610239565b6002600055565b60608160000361104a5750506040805180820190915260018152600360fc1b602082015290565b8160005b8115611074578061105e81611740565b915061106d9050600a83611418565b915061104e565b60008167ffffffffffffffff81111561108f5761108f6112b6565b6040519080825280601f01601f1916602001820160405280156110b9576020820181803683370190505b509050815b8515611146576110cf6001826113ff565b905060006110de600a88611418565b6110e990600a61143a565b6110f390886113ff565b6110fe90603061177e565b905060008160f81b90508084848151811061111b5761111b611797565b60200101906001600160f81b031916908160001a90535061113d600a89611418565b975050506110be565b50949350505050565b6001546001600160a01b031633146109c25760405162461bcd60e51b815260206004820181905260248201527f4f776e61626c653a2063616c6c6572206973206e6f7420746865206f776e65726044820152606401610239565b600180546001600160a01b038381166001600160a01b0319831681179093556040519116919082907f8be0079c531659141344cd1fd0a4f28419497f9722a3daafe3b4186f6b6457e090600090a35050565b60006020828403121561120d57600080fd5b5035919050565b60005b8381101561122f578181015183820152602001611217565b50506000910152565b60008151808452611250816020860160208601611214565b601f01601f19169290920160200192915050565b60e08152600061127760e083018a611238565b60208301989098525060408101959095526001600160a01b03938416606086015291909216608084015260a0830191909152151560c090910152919050565b634e487b7160e01b600052604160045260246000fd5b6000806000606084860312156112e157600080fd5b833567ffffffffffffffff808211156112f957600080fd5b818601915086601f83011261130d57600080fd5b81358181111561131f5761131f6112b6565b604051601f8201601f19908116603f01168101908382118183101715611347576113476112b6565b8160405282815289602084870101111561136057600080fd5b82602086016020830137600060208483010152809750505050505060208401359150604084013590509250925092565b6000602082840312156113a257600080fd5b81356001600160a01b03811681146113b957600080fd5b9392505050565b6020808252600f908201526e125b9d985b1a5908189bdbdac81251608a1b604082015260600190565b634e487b7160e01b600052601160045260246000fd5b81810381811115611412576114126113e9565b92915050565b60008261143557634e487b7160e01b600052601260045260246000fd5b500490565b8082028115828204841417611412576114126113e9565b7f4164646974696f6e616c207061796d656e742072657175697265643a2000000081526000855161148981601d850160208a01611214565b7f2077656920666f7220746f74616c2072656e74206f6620000000000000000000601d9184019182015285516114c6816034840160208a01611214565b6f0103bb2b49014323ab930ba34b7b71d160851b6034929091019182015284516114f7816044840160208901611214565b6b01036b4b73aba32b99030ba160a51b604492909101918201528351611524816050840160208801611214565b6f2077656920706572206d696e7574652960801b605092909101918201526060019695505050505050565b6020815260006113b96020830184611238565b80820180821115611412576114126113e9565b600181811c9082168061158957607f821691505b6020821081036115a957634e487b7160e01b600052602260045260246000fd5b50919050565b7f496e73756666696369656e74207061796d656e742e2052657175697265643a208152600083516115e7816020850160208801611214565b80830190506b0103bb2b4961029b2b73a1d160a51b6020820152835161161481602c840160208801611214565b632077656960e01b602c9290910191820152603001949350505050565b601f82111561167b57600081815260208120601f850160051c810160208610156116585750805b601f850160051c820191505b8181101561167757828155600101611664565b5050505b505050565b815167ffffffffffffffff81111561169a5761169a6112b6565b6116ae816116a88454611575565b84611631565b602080601f8311600181146116e357600084156116cb5750858301515b600019600386901b1c1916600185901b178555611677565b600085815260208120601f198616915b82811015611712578886015182559484019460019091019084016116f3565b50858210156117305787850151600019600388901b60f8161c191681555b5050505050600190811b01905550565b600060018201611752576117526113e9565b5060010190565b60608152600061176c6060830186611238565b60208301949094525060400152919050565b60ff8181168382160190811115611412576114126113e9565b634e487b7160e01b600052603260045260246000fdfea26469706673582212203e44ce2cb5ce61f4fc283c84d11a5dd3018b135f28891b32bdbc92671fe4973764736f6c63430008130033",
  "immutableReferences": {},
  "source": "// SPDX-License-Identifier: MIT\r\npragma solidity ^0.8.19;\r\n\r\nimport \"@openzeppelin/contracts/security/ReentrancyGuard.sol\";\r\nimport \"@openzeppelin/contracts/access/Ownable.sol\";\r\n\r\ncontract BookRental is ReentrancyGuard, Ownable {\r\n    struct Book {\r\n        string title;\r\n        uint256 dailyPrice;  // Price per minute for testing\r\n        uint256 deposit;\r\n        address owner;\r\n        address renter;\r\n        uint256 rentalStartTime;\r\n        bool isAvailable;\r\n    }\r\n\r\n    mapping(uint256 => Book) public books;\r\n    uint256 public bookCount;\r\n    uint256 public constant LATE_FEE_MULTIPLIER = 2; // 2x price for late returns\r\n    uint256 public constant SECONDS_PER_MINUTE = 60; // For testing with minutes\r\n\r\n    event DebugRefund(uint256 deposit, uint256 totalRent, uint256 refundAmount);\r\n    event ItemListed(uint256 indexed bookId, string title, uint256 dailyPrice, uint256 deposit);\r\n    event ItemRented(uint256 indexed bookId, address indexed renter);\r\n    event ItemReturned(uint256 indexed bookId, address indexed renter, uint256 refundAmount);\r\n    event RefundSent(address indexed to, uint256 amount);\r\n    event PaymentSent(address indexed to, uint256 amount);\r\n\r\n    constructor() {\r\n        // Ownable constructor is called automatically\r\n    }\r\n\r\n    function listItem(\r\n        string memory _title,\r\n        uint256 _dailyPrice,\r\n        uint256 _deposit\r\n    ) external {\r\n        require(bytes(_title).length > 0, \"Title cannot be empty\");\r\n        require(_dailyPrice > 0, \"Price must be greater than 0\");\r\n        require(_deposit >= _dailyPrice, \"Deposit must be greater than or equal to price\");\r\n\r\n        uint256 bookId = bookCount;\r\n        books[bookId] = Book({\r\n            title: _title,\r\n            dailyPrice: _dailyPrice,\r\n            deposit: _deposit,\r\n            owner: msg.sender,\r\n            renter: address(0),\r\n            rentalStartTime: 0,\r\n            isAvailable: true\r\n        });\r\n        bookCount++;\r\n\r\n        emit ItemListed(bookId, _title, _dailyPrice, _deposit);\r\n    }\r\n\r\n    function rentItem(uint256 _bookId) external payable nonReentrant {\r\n        require(_bookId < bookCount, \"Invalid book ID\");\r\n        Book storage book = books[_bookId];\r\n        require(book.isAvailable, \"Book is not available\");\r\n        require(msg.sender != book.owner, \"Cannot rent your own book\");\r\n\r\n        uint256 totalPayment = book.dailyPrice + book.deposit;\r\n        require(msg.value >= totalPayment, string(abi.encodePacked(\r\n            \"Insufficient payment. Required: \",\r\n            uint2str(totalPayment),\r\n            \" wei, Sent: \",\r\n            uint2str(msg.value),\r\n            \" wei\"\r\n        )));\r\n\r\n        book.renter = msg.sender;\r\n        book.rentalStartTime = block.timestamp;\r\n        book.isAvailable = false;\r\n\r\n        // Refund excess payment\r\n        if (msg.value > totalPayment) {\r\n            (bool success, ) = payable(msg.sender).call{value: msg.value - totalPayment}(\"\");\r\n            require(success, \"Excess payment refund failed\");\r\n        }\r\n\r\n        emit ItemRented(_bookId, msg.sender);\r\n    }\r\n\r\n    function returnItem(uint256 _bookId) external payable nonReentrant {\r\n        require(_bookId < bookCount, \"Invalid book ID\");\r\n        Book storage book = books[_bookId];\r\n        require(!book.isAvailable, \"Book is not rented\");\r\n        require(msg.sender == book.renter, \"Only renter can return the book\");\r\n\r\n        // Calculate rental duration in minutes, minimum 1 minute\r\n        uint256 rentalDuration = (block.timestamp - book.rentalStartTime) / SECONDS_PER_MINUTE;\r\n        if (rentalDuration == 0) rentalDuration = 1; // Minimum rental period is 1 minute\r\n        \r\n        // Calculate total rent (price per minute * number of minutes)\r\n        uint256 totalRent = book.dailyPrice * rentalDuration;\r\n\r\n        // Store renter address for event\r\n        address renter = book.renter;\r\n\r\n        // Reset book state before transfers to prevent reentrancy\r\n        book.renter = address(0);\r\n        book.rentalStartTime = 0;\r\n        book.isAvailable = true;\r\n\r\n        uint256 refundAmount;\r\n        uint256 ownerPayment;\r\n        uint256 extraPaymentNeeded;\r\n        \r\n        if (totalRent > book.deposit) {\r\n            // Calculate extra payment needed from renter\r\n            extraPaymentNeeded = totalRent - book.deposit;\r\n            \r\n            // Verify the renter has sent the extra payment\r\n            require(msg.value >= extraPaymentNeeded, string(abi.encodePacked(\r\n                \"Additional payment required: \",\r\n                uint2str(extraPaymentNeeded),\r\n                \" wei for total rent of \",\r\n                uint2str(totalRent),\r\n                \" wei (duration: \",\r\n                uint2str(rentalDuration),\r\n                \" minutes at \",\r\n                uint2str(book.dailyPrice),\r\n                \" wei per minute)\"\r\n            )));\r\n            \r\n            refundAmount = 0; // No refund as rent exceeds deposit\r\n            ownerPayment = book.deposit + extraPaymentNeeded; // Total rent to be paid to owner\r\n            \r\n            // Refund excess payment if any\r\n            if (msg.value > extraPaymentNeeded) {\r\n                uint256 excessPayment = msg.value - extraPaymentNeeded;\r\n                (bool success, ) = payable(renter).call{value: excessPayment}(\"\");\r\n                require(success, \"Excess payment refund failed\");\r\n                emit RefundSent(renter, excessPayment);\r\n            }\r\n            \r\n            // Transfer payment to book owner\r\n            (bool ownerSuccess, ) = payable(book.owner).call{value: ownerPayment}(\"\");\r\n            require(ownerSuccess, \"Owner payment transfer failed\");\r\n            emit PaymentSent(book.owner, ownerPayment);\r\n        } else {\r\n            require(msg.value == 0, \"No additional payment needed for return\");\r\n            refundAmount = book.deposit - totalRent;\r\n            ownerPayment = totalRent;\r\n\r\n            // Emit debug event\r\n            emit DebugRefund(book.deposit, totalRent, refundAmount);\r\n\r\n            // Transfer refund to renter\r\n            (bool refundSuccess, ) = payable(renter).call{value: refundAmount}(\"\");\r\n            require(refundSuccess, \"Refund transfer failed\");\r\n            emit RefundSent(renter, refundAmount);\r\n\r\n            // Transfer payment to book owner\r\n            (bool ownerSuccess, ) = payable(book.owner).call{value: ownerPayment}(\"\");\r\n            require(ownerSuccess, \"Owner payment transfer failed\");\r\n            emit PaymentSent(book.owner, ownerPayment);\r\n        }\r\n\r\n        emit ItemReturned(_bookId, renter, refundAmount);\r\n    }\r\n\r\n    function getBook(uint256 _bookId) external view returns (\r\n        string memory title,\r\n        uint256 dailyPrice,\r\n        uint256 deposit,\r\n        address owner,\r\n        address renter,\r\n        uint256 rentalStartTime,\r\n        bool isAvailable\r\n    ) {\r\n        require(_bookId < bookCount, \"Invalid book ID\");\r\n        Book storage book = books[_bookId];\r\n        return (\r\n            book.title,\r\n            book.dailyPrice,\r\n            book.deposit,\r\n            book.owner,\r\n            book.renter,\r\n            book.rentalStartTime,\r\n            book.isAvailable\r\n        );\r\n    }\r\n\r\n    function getBookCount() external view returns (uint256) {\r\n        return bookCount;\r\n    }\r\n\r\n    // Helper function to convert uint to string\r\n    function uint2str(uint _i) internal pure returns (string memory _uintAsString) {\r\n        if (_i == 0) {\r\n            return \"0\";\r\n        }\r\n        uint j = _i;\r\n        uint len;\r\n        while (j != 0) {\r\n            len++;\r\n            j /= 10;\r\n        }\r\n        bytes memory bstr = new bytes(len);\r\n        uint k = len;\r\n        while (_i != 0) {\r\n            k = k-1;\r\n            uint8 temp = (48 + uint8(_i - _i / 10 * 10));\r\n            bytes1 b1 = bytes1(temp);\r\n            bstr[k] = b1;\r\n            _i /= 10;\r\n        }\r\n        return string(bstr);\r\n    }\r\n} ",
  "sourcePath": "C:\\Users\\hp\\Desktop\\Project X\\contracts\\BookRental.sol",
  "compiler": {
    "name": "solc",
    "version": "0.8.19+commit.7dd6d404.Emscripten.clang"
  },
  "schemaVersion": "3.4.16",
  "updatedAt": "2025-04-01T11:53:54.510Z",
  "networkType": "ethereum",
  "devdoc": {
    "kind": "dev",
    "methods": {
      "owner()": {
        "details": "Returns the address of the current owner."
      },
      "renounceOwnership()": {
        "details": "Leaves the contract without owner. It will not be possible to call `onlyOwner` functions. Can only be called by the current owner. NOTE: Renouncing ownership will leave the contract without an owner, thereby disabling any functionality that is only available to the owner."
      },
      "transferOwnership(address)": {
        "details": "Transfers ownership of the contract to a new account (`newOwner`). Can only be called by the current owner."
      }
    },
    "version": 1
  },
  "userdoc": {
    "kind": "user",
    "methods": {},
    "version": 1
  }
}